:020000040800F2
:10000000E04A0020B1380008CD130008CF130008E3
:10001000D9130008E3130008ED13000800000000E6
:10002000000000000000000000000000F7130008BE
:10003000F913000800000000FB130008FD1300087E
:10004000CB380008CB380008CB380008CB38000884
:10005000CB380008CB380008CB380008091400085A
:10006000CB380008CB380008CB380008CB38000864
:10007000C918000887180008BF1600087B1600087A
:10008000CB380008CB380008CB380008CB38000844
:10009000CB380008CB380008CB380008CB38000834
:1000A000CB380008CB380008CB380008CB38000824
:1000B000CB380008CB380008970A0008CB38000876
:1000C000CB380008CB380008CB380008CB38000804
:1000D000CB3800081F160008CB3800082D18000880
:1000E00035140008CB380008CB380008DFF810D0F2
:1000F00003F0ECFF00480047C3130008AFF3008093
:10010000E04A0020F8B500F072FCB84C6168884203
:1001100004D300F06CFC6168401A05E000F067FC55
:100120006168C9430844401CB0F57A7F43D300F0AE
:100130005EFC6060AE4C4FF40051204602F0ADFA18
:100140000646A114204602F0A8FA0546684600F0CB
:100150004BFFA64C07460C34012E01D056B107E0E8
:10016000012D01D055B103E0012F01D1012006E09E
:10017000022004E0012DFBD1042000E008202071C2
:10018000607966F3820065F3C3006071009803F044
:100190003CFD0022974B03F091FC03F01DFDB4F8E9
:1001A0000510012F60F30D11A4F80510607903D03C
:1001B00020F001006071F8BD40F00100FAE710B5D1
:1001C00000240021084600F09BF90021012000F0E6
:1001D0002FFAC82000F0F6FB0121002000F090F972
:1001E0000121084600F024FAC82000F0EBFB641C53
:1001F000032CE6DBBDE810407FA000F0E4BC2DE955
:10020000F0417A4D0C35E8792E7910F0700F0CD052
:100210004FF47A7700F0EBFB744CA168884206D368
:1002200000F0E5FBA168401A07E0C827F2E700F0FC
:10023000DEFBA168C9430844401CB8423FD300F02C
:10024000D6FBA06000F0D3FB2968884204D300F0FD
:10025000CEFB2968401A05E000F0C9FB2968C943B4
:100260000844401CB0F5FA6F01D2012500E00025DA
:100270002078012180F001002070042000F040F976
:10028000022E0BD0012E11D0042E14D0082E16D120
:1002900000210220BDE8F04100F032B91DB1207804
:1002A00080F0010100E000210020F3E7207880F0D9
:1002B00001010120EEE7207880F00101E9E7BDE8C7
:1002C000F0814A480C3041798A0702D521F00201B9
:1002D00001E041F0020141717047444A0C320628A6
:1002E000D17921F0700100D11031D171704710B572
:1002F00000F0E4FBFFF706FFFFF781FFBDE81040C9
:1003000000F037B8394B10B50C3300205A7901464C
:1003100062F30001540864F34101940864F382011C
:10032000D20862F3C30161F30700B3F805100A09AC
:10033000014662F30D11DA7961F30F00010C62F3EB
:100340000001540864F34101940864F38201D40865
:1003500064F3C301140964F30611D20962F3C711EF
:1003600061F317401A7A010E62F3000161F31F6016
:1003700010BD70B51E4D4FF48071284602F08DF906
:100380001A4C0C340128E07902D040F0010001E061
:1003900020F00100E0714FF40071284602F07DF971
:1003A0000128E07902D040F0040001E020F00400D0
:1003B000E0718021284602F070F90128E07902D02E
:1003C00040F0080001E020F00800E0714FF4004127
:1003D0000D4802F062F90128E07902D040F00200F5
:1003E00001E020F00200E07170BD0000000000207C
:1003F000000C0140000059404A4C20737973746529
:100400006D20496E69740A000008014030B5044649
:100410000020034603E0CD18655D68405B1C9342F5
:10042000F9DB30BD0FB470B5DDF828449DF810003D
:1004300020709DF811006070BDF81100000AA070D6
:10044000BDF8112003253AB1E01C0DF1130103F0B2
:10045000F1FABDF81150ED1CBDF811200321204622
:10046000FFF7D4FF6055681C9DF826142154A81C82
:1004700070BC5DF814FB2DE9F043ADF2044D174656
:100480000DF22442844644CA2A2002F117048DF852
:100490000000DDF82094601FADF801004FF0EE3849
:1004A000CDF80380CDF80780CDF80B70CDF80F3074
:1004B0006D468DF813C08DF8141022B1494605F130
:1004C000150003F0B7FABDF8012003212846FFF715
:1004D0009DFF0DEB040101F8020D23204870012E51
:1004E00009D0022E03D12146684601F05BF90DF2D6
:1004F000044DBDE8F0832146684600F0F7FFF6E7BB
:1005000010B5644A644C052836D2DFE800F0030ACF
:100510001322280019B101292ED108210EE008214B
:1005200012E021B1012927D11021204607E0102136
:1005300020460AE039B101291ED104211046BDE848
:10054000104002F0BEB804211046BDE8104002F091
:10055000BAB80029F8D001290ED10021EEE731B157
:10056000012909D10C21104602F0ABF8DCE70C217F
:10057000104602F0A8F8DAE710BD2DE9F8438046EE
:100580000121464802F0BEF801210C2002F033FAA6
:100590000C20ADF8000010248DF8034003258DF8E1
:1005A000025069463B4802F01EF8ADF800403A4F51
:1005B0008DF803408DF802506946384602F013F872
:1005C000A602ADF800608DF803408DF80250694630
:1005D000384602F008F83146384602F074F8B8F1AF
:1005E000000F03D001210420FFF78AFFBDE8F88344
:1005F00010B52B4B02290DD0042804D003F820108D
:10060000FFF77EFF10BD0022521C03F82010042AC1
:10061000FADBF5E728B1012803D0022801D003282E
:10062000F0D1022103F8201003EB8000428010BDBE
:10063000194A4FF48043012801D002280AD129B178
:10064000012907D11946104602F03BB81946104659
:1006500002F039B8704770B5114D0646002400BF4E
:1006600015F82400022811D105EB84004088B6FB60
:10067000F0F100FB116149B9B6FBF0F0C007E0B240
:1006800001D0002100E00121FFF73AFF641C042C97
:10069000E6DB70BD00080140000C014000023000A4
:1006A0001800002010B54FF4407001F0BFF900F0C1
:1006B00007FA0120FFF761FF00F00EFB00F067FC76
:1006C000BDE8104000F070B938B50121B94802F01A
:1006D00019F801210D2002F08EF94FF44050ADF8C9
:1006E00000000420B44D8DF803006946284601F04F
:1006F0007AFF4FF46070ADF8000048248DF8034095
:100700006946284601F06FFF49F60200ADF8000087
:100710008DF803406946A94801F065FF38BD7CB5F6
:1007200004460121002002F016F8002502208DF871
:1007300004500C2600908DF805608DF80640684640
:1007400001F056FC0C21002002F005F84FF4805017
:100750008DF8045000908DF805608DF806406846CD
:1007600001F046FC0B21002001F0F5FF4FF4006082
:100770008DF8045000908DF805608DF806406846AD
:1007800001F036FC7CBDF8B507218DF800100A2475
:100790008DF8014000258DF8025007468DF80300C2
:1007A000684601F048F928268DF800608DF8014070
:1007B0008DF802508DF80370684601F03CF98DF811
:1007C00000608DF801408DF802508DF80370684686
:1007D00001F031F9F8BD10B50120FFF7A0FFBDE829
:1007E00010400120CFE710B50020FFF798FFBDE8CB
:1007F00010400020C7E710B501246F4B6F4A08284E
:100800001DD2DFE800F01C04070B0D0F12154FF48A
:10081000807101E04FF4007118460CE0022109E0FC
:100820008021F9E74FF4004104E04FF4805101E0EA
:100830004FF40061104601F030FF00B9002420465B
:1008400010BD5F480021017041708170C17041602E
:10085000816040F6B83181814FF49671C181642185
:10086000018270472DE9F047554C054686B2204677
:100870002278C178A0F104094FF0000A01274078DE
:10088000D046072A64D2DFE802F0041D32535355E4
:1008900069000320FFF7AFFF28B90320607065608F
:1008A00084F8028027700626F0B2FFF7A4FF18B183
:1008B000761C082EF8DB4BE06670656084F80280D9
:1008C000277058E06168A289691A914205D9A9F890
:1008D000006084F80380062016E0FFF78CFF0128F3
:1008E00036D1A560A77002202070BDE8F087FFF721
:1008F00082FF58B9A068E189281A884206D2A9F86F
:10090000006084F803800520207029E0A068E28957
:10091000291A91421CD9A9F8006084F80380616803
:10092000401A642801D3042000E0032020700FE067
:10093000E77023E0A1B9032804D0062805D00728D2
:1009400003D004E0FFF7BDFC01E0FFF7C6FCE77051
:100950002078062804D0052802D00CE001B9E77001
:10096000B9F80000218A281A884204D96078FFF774
:1009700042FF012802D0BAF1000FB6D0FFF761FFA5
:10098000FFF729FFBDE8F04700F081B80C490020CF
:100990000978002900D10120704709490020097811
:1009A000042900D30120704710B5FFF78DFEBDE884
:1009B000104010E700023000000C01400008014028
:1009C0002C0000205F4908604FF0E020026942F0EF
:1009D0000102026108680028FCD1704703E0092188
:1009E000491E89B2FCD2401E80B2F8D270475548E9
:1009F0004068704753480168002902D00168491EC9
:100A0000016070473EB50121042001F0FDFF4E4C0E
:100A1000204602F03FF86320ADF8040041F61F4085
:100A20000021ADF80000ADF80610ADF802108DF809
:100A300008106946204602F0C5F80121204602F060
:100A400091FD01221146204602F07AFB002120464A
:100A500002F061FB3EBD08B51E208DF800000920A4
:100A60008DF8010000208DF8020001208DF80300B0
:100A7000684600F0E0FF08BD324810B54068FFF757
:100A8000F1FEBDE8104001212F4802F044BB0021D7
:100A90002D4802F040BB10B52B4C0121204602F03E
:100AA00064FD002809D00121204602F06AFD254896
:100AB0004068BDE81040FFF7D5BE10BD01F07BBE19
:100AC00070B522484FF47A710068B0FBF1F0401E17
:100AD000B0F1807F25D24FF0E024606165170F21CF
:100AE000284600F01FF80020A0610720206108219F
:100AF000284600F017F8FFF785FFFFF7ACFF062444
:100B00002D0D45F2555001F04DFE204601F04DFEF1
:100B1000284601F04DFE01F04EFEBDE8704001F0A8
:100B20004FBEFEE70907090E002804DB00F1E020B4
:100B300080F80014704700F00F0000F1E02080F80A
:100B4000141D704740000020000800407C10002069
:100B50002DE9F0410E460746012A0FD0EA4C00214C
:100B6000204601F0EAF9E848443886640765012127
:100B7000204601F0E2F93046BDE8F0810025E34C63
:100B80000BE021882046795D02F0F7FD40212046E8
:100B900002F054FE0028F9D06D1CB542F1DBEAE703
:100BA00070B5D94E0C460546283E0021304601F06E
:100BB000C4F9D5484438046285620121304601F009
:100BC000BCF9204670BD0FB44FF4007110B503ABF3
:100BD000CF48029A03F0ECFA81B20122CC48FFF729
:100BE000B7FF10BC5DF814FB0FB44FF4807110B563
:100BF00003ABC848029A03F0DBFA0146C54800F08F
:100C000075FCEEE72DE9F04301218BB0084601F0B9
:100C1000E9FEDFF8F482404601F0F8F8BB4D00240D
:100C20002D1D102080260095CDE904464702029034
:100C3000CDE9084706940794694640460A9401F0B6
:100C400052F901220221404601F082F9DFF8BC820C
:100C500001228021404602F05CFDDFF8AC9209F1F0
:100C60001409484601F0D2F8AB486946CDE9005076
:100C7000CDE904464FF44075CDE9024520200694A5
:100C8000CDE90740CDE90974484601F02CF901216E
:100C9000484601F052F99C484438C56500220221BB
:100CA000484601F055F900224021404602F031FD4E
:100CB0000BB0BDE8F08308B50F208DF800000A20C6
:100CC0008DF8010000208DF8020001208DF803004E
:100CD000684600F0B0FE08BD2DE9FF5F012144F237
:100CE000040001F088FE4FF40070ADF800004FF0F2
:100CF00003088A4C8DF802804FF018098DF8039094
:100D00006946204601F06FFC4FF4806AADF800A000
:100D100048208DF803006946204601F064FC002459
:100D20007A4D4FF4E13BADF80440ADF808400C2794
:100D3000CDF800B0ADF80640ADF80C40ADF80A7043
:100D40006946284602F050FC012240F22441284620
:100D500002F0C7FC0121284602F0B9FCFFF752FF60
:100D60000E208DF8000009208DF801008DF802405A
:100D700001258DF80350684600F05DFE25208DF8B2
:100D800000000A268DF801608DF802408DF80350AE
:100D9000684600F050FE0121082001F02CFE0121E0
:100DA000880401F031FEADF800A08DF80280DFF874
:100DB00070818DF803906946404601F014FCE8020A
:100DC000ADF8000048208DF803006946404601F068
:100DD0000AFCDFF85081ADF80440ADF80840CDF8CA
:100DE00000B0ADF80640ADF80C40ADF80A706946A9
:100DF000404602F0F9FB002240F22441404602F056
:100E000070FC0021404602F062FC00F025F88DF8ED
:100E100000708DF801608DF802408DF8035068462F
:100E200000F009FE0D208DF800008DF801608DF8AE
:100E300002408DF80350684600F0FDFD27208DF834
:100E400000008DF801608DF802408DF8035068466F
:100E500000F0F1FDBDE8FF9F2DE9F04301218BB0CB
:100E6000084601F0BFFDDFF8A080A8F12808404641
:100E700000F0CCFF2B4D00242D1D10208026009566
:100E8000CDE9044647020290CDE90847069407944D
:100E9000694640460A9401F026F8012202214046A4
:100EA00001F056F8DFF87C8001228021404602F0F4
:100EB00030FCDFF85490A9F11409484600F0A6FF71
:100EC00019486946CDE90050CDE904460125CDE930
:100ED000024520200694CDE90740CDE90974484633
:100EE00001F001F80121484601F027F8064844388E
:100EF000456300220221484601F02AF800224021E1
:100F0000404602F006FCD3E64400024000380140AF
:100F10009010002090120020901300200008014043
:100F2000000C0140004800409016002010B586B02B
:100F30004FF4004001F0F5FC454C204600F0CEFD9A
:100F400000214FF46020CDE902018DF8041001204A
:100F500000918DF805108DF810006946204600F0CC
:100F6000D9FD0121204600F0FDFD204600F017FECE
:100F7000204600F019FE0028FAD1204600F01BFEA2
:100F8000204600F01DFE0028FAD106B010BD08B5BD
:100F900001214FF4027001F02EFD0220ADF8000097
:100FA00000208DF8030003208DF8020069462948CF
:100FB00001F019FBBDE80840B8E710B5244C014624
:100FC00007230122204600F025FE0121204600F0E3
:100FD000FEFD0221204600F0F1FE0028F9D0204657
:100FE000BDE8104000F05ABE10B504460920FFF7D6
:100FF000E4FF02F0ECFD6FF00B0102F053FD02F094
:1010000004FE4FF06632144B02F058FD012202F04C
:10101000C7FD02F00DFE114B00221149984209DC78
:101020004B885B1C9BB24B808A80CA80052B06D301
:10103000012208E04A808B885B1C8B80CA808A88EA
:10104000052A01D302220A702060087810BD000032
:1010500000240140000C014066660A400000604028
:10106000480000200022C0F80C2C00F60C40C0E91B
:101070000121C260704700F6144003C8814201D1CB
:101080000120704700207047D0F8180C08B10020EC
:1010900070470120704770B515460A460446FFF7B1
:1010A000EAFF08B1002070BDD4F8100C294600EB0F
:1010B000002004F82020D4F8100C1A4600EB002081
:1010C00004EB80004380D4F8100C00EB002004EB0C
:1010D0008000001D02F0AEFC04F5416003C8401C16
:1010E00090FBF1F201FB1200C4F8100CD4F8180CBC
:1010F000401CC4F8180C012070BD70B50C460246A7
:10110000FFF7C2FF401E20424FF0000503D104B19B
:101110002560002070BDD2F80C0C00EB002002EB23
:1011200080002060D2F80C0CD2F8141C401C90FBFC
:10113000F1F301FB1300C2F80C0CD2F8180C401E9E
:10114000C2F8180C20684188B1F5806F03D96DA0F2
:10115000FFF739FDDCE7012070BD30B5002288B013
:101160005FF00A03B0FBF3F403FB1404B0FBF3F0ED
:1011700030348C54521C0028F4D1885410006B4633
:1011800004D40C5C151A401E5C55FAD5012004E00D
:101190001C5C0D18401C05F8014C9042F8DD08B0AD
:1011A00030BD2DE9F04117468846064600241DE073
:1011B000305D02F039FCC5B23019407802F034FCE1
:1011C000C0B2392D01D9373D00E0303DE9B23928B0
:1011D00001D9373800E03038C0B204EBD47240EAAD
:1011E000011008EB6201A41C087024B2BC42DFDBD2
:1011F000BDE8F081F8B515460E46074600240AE022
:101200003A5D47A1684602F0BFFF06EB4400BDF817
:1012100000100180641CAC42F2DBF8BD30B5002444
:10122000234609E002D08D4200D1641C944201D1D2
:10123000184630BD401C5B1C0578002DF2D14FF0E4
:10124000FF3030BD2DE9F04107461E4690460C4662
:101250000025084607E078193246414602F015FCA1
:1012600040B16D1C601BA54201DAB042F3DA4FF0C9
:10127000FF30BDE72846BBE710B50446104603E043
:10128000225C9A4204D0401C8842F9DB4FF0FF30C8
:1012900010BDF0B51F460646059DFFF7BFFF04468B
:1012A0002A4639463046FFF7B9FF611C06D0411C7B
:1012B00004D0001B012801DD2046F0BD4FF0FF30B7
:1012C000F0BD2DE9F0471D46894606004FF0FF3876
:1012D00012D0B9F1000F0FD0AA420DDB002D0BDDAB
:1012E0000024571B06E030192A46494602F0CDFB80
:1012F00028B1641CA742F6DA4046BDE8F0872046D4
:10130000FBE700006572726F72207175657565206C
:101310006D73672C206C656E3D25640A000000002B
:10132000253032580000000010B586B001F058FAA0
:101330004FF48034204601F06CFA01F097FA28B39C
:10134000102000F0CBFE022000F0B8FE002001F0DB
:10135000C5FA002001F0D0FAA01101F0C6FA601021
:1013600001F0DFFA4FF4E011204601F0A0FA01206D
:1013700001F0A5FA392001F064FA0028FAD0022021
:1013800001F0A0FA01F0A5FA0828FBD1684601F0A7
:10139000E9FA06B010BD10B502F0ECFAFFF7C4FF91
:1013A000FFF780F9BDE81040FEF709BF00F0D2F961
:1013B00000F0FFFAFEF79BFF00F0E1F900F019FBE7
:1013C000F8E7FFF7E8FFFFF7F1FF000070472FA0F5
:1013D000FFF7F9FB00F04DF831A0FFF7F4FB00F048
:1013E00048F834A0FFF7EFFB00F043F836A0FFF712
:1013F000EAFB00F03EF870477047704737480168D5
:10140000491C0160FFF7F6BA10B5022000F040FE5B
:1014100000280ED0022000F049FE0221304801F0E1
:101420003CF9002805D1FFF7DEF9BDE81040FFF7D1
:1014300023BB10BD70B54FF48054204600F028FE49
:10144000274D70B1204600F031FE2146284601F0BC
:1014500024F900280CD1FFF7C6F9BDE87040FFF76A
:101460000BBB4FF40064204600F012FE0028E9D1C7
:1014700070BDBFF34F8F1B4801681B4A01F4E06148
:1014800011430160BFF34F8F00BFFDE748617264F5
:101490004661756C745F48616E646C65720A000029
:1014A0004D656D4D616E6167655F48616E646C6529
:1014B000720A00004275734661756C745F48616E14
:1014C000646C65720A00000055736167654661755A
:1014D0006C745F48616E646C65720A0044000020A1
:1014E000000801400CED00E00400FA052DE9F04190
:1014F000A64C0F460146D4F804080026C21904F58C
:101500008065B2F5806F08D228443A4602F092FA1C
:10151000D4F804083844C4F80408D4F800080128B2
:1015200001D0B8B124E0D4F804280AB3294697487A
:1015300002F080FAB4F80408002281B29348FFF761
:1015400007FBFFF754FAC4F808080020C4F80008A5
:10155000C4F80408FFF74BFAD4F80818401AB0F59D
:10156000FA6F05D90120C4F80008400300F00BFD14
:101570003046BDE8F08170B50C4611F8052B002609
:10158000251D042A49D2DFE802F0020D0F272A2880
:1015900043D101222270B4F80320531CA4F8033075
:1015A00050543AE00222F5E7B4F80320535D0325D6
:1015B0002570551C03EB0023A4F8035050545B1D09
:1015C00098B2A4F80100B0F5806F26D940F20A4124
:1015D000204602F048FA20E0B4F80320531CA4F897
:1015E00003305054B4F80120B4F80300101A002856
:1015F00013DC0321601D521FFEF708FFC2B2B4F8CE
:101600000110E01C085C495D232902D1824200D10F
:10161000012600202070A4F80300304670BD70B58C
:101620005B4C0821204602F009F910B1204602F077
:10163000A8F840F22441204602F00AF900281BD005
:10164000544D0021284600F078FC5148001D0088C8
:10165000504C583CE06D504AC0F5407083B20021B8
:101660004E48FFF718FD4FF44070E0652846BDE88E
:101670007040012100F061BC70BD70B54FF40036C0
:10168000304600F072FC002818D04FF44074234616
:10169000414A00214148FFF7FEFC3E4D002128460B
:1016A00000F04BFC3B485838C4650121284600F047
:1016B00044FC3046BDE8704000F065BC70BD10B51C
:1016C0004FF40054204600F050FC002808D02F4969
:1016D0000120C1F800082046BDE8104000F053BCCE
:1016E00010BD38B50020009069462C48FFF705FD75
:1016F00048B1009820B1408810B1B0F5806F05D98D
:101700006FF0010038BD4FF0FF3038BD0024244D8C
:1017100012E0204422490079FFF72DFF58B12A7EBC
:10172000B5F80110022A03D0032A01D0102A02D1F1
:10173000681D00F037F8641C00984188A142E8DC7D
:1017400038BD1248D0F80408002802D0002108460D
:10175000CCE6704710B540F20A41114802F083F917
:1017600003210E48FFF77EFC01220221094800F008
:10177000EFFB01224021064801F0CBFF10BD10B560
:10178000FFF7AFFFBDE81040DBE70000500000208E
:101790000038014058000240901300209C1E002099
:1017A000901A00202DE9F041954C0F460146D4F8DF
:1017B00004080026C21904F58065B2F5806F08D2CE
:1017C00028443A4602F036F9D4F804083844C4F8FC
:1017D0000408D4F80008012801D0B0B123E0D4F8FF
:1017E000042802B32946864802F024F9B4F8040814
:1017F00081B28348FFF7D4F9FFF7F9F8C4F8080875
:101800000020C4F80008C4F80408FFF7F0F8D4F882
:101810000818401AB0F5FA6F05D90120C4F800087D
:10182000202000F0B0FB3046BDE8F08170B5754C6B
:101830000821204602F002F810B1204601F0A1FF75
:1018400040F22441204602F003F800281AD06E4DE1
:101850000021284600F071FB6A48001D00886A4C90
:10186000303C606B694AC0F5806083B200216848F3
:10187000FFF711FC201560632846BDE87040012188
:1018800000F05BBB70BD70B54FF40076304600F0E1
:101890006CFB002817D0740023465C4A00215C488A
:1018A000FFF7F9FB584D0021284600F046FB56484B
:1018B000303844630121284600F03FFB3046BDE844
:1018C000704000F060BB70BD10B5202000F04DFBF3
:1018D000002808D04A490120C1F80008BDE810409E
:1018E000202000F050BB10BD2DE9F04194B0002045
:1018F000139013A94648FFF700FC50B1139820B18C
:10190000408810B1B0F5806F06D96FF0010014B0B7
:101910008AE74FF0FF30FAE700243E4D3BE008191C
:101920003C490079FFF727FE80B3287EB5F8011007
:10193000012806D002282AD0032828D0102829D12F
:1019400025E0FFF754F8344908603248D1F80570B3
:10195000AE68406BD5F80C80B8421BD0402103A87C
:1019600002F081F83A462DA103A802F00DFC03A86D
:1019700002F084F880B203AACDE90020022102918E
:101980003246434600210320FEF775FD02E0681D44
:10199000FFF7ACFD641C13994888A042BFDCB6E792
:1019A0001748D0F80408002802D000210846F9E6BC
:1019B000704710B540F20A41164802F054F803216E
:1019C0001348FFF74FFB0F4C0121204601F07FFE2B
:1019D000012240F22441204601F083FE012202212F
:1019E000094800F0B5FA01224021204601F091FE9D
:1019F00010BD10B5FFF778FFBDE81040D0E700003C
:101A00005C08002000480040300002409016002092
:101A1000C42E0020B82A00200C00002073657473C7
:101A2000656E20253038580D0A000000284908430B
:101A300028490860704770B50F23C47801780122E7
:101A4000F4B1244C2468457804F4E064C4F5E064FF
:101A5000240AC4F10406E3408478B5401C402C43BA
:101A600001F1E021230181F80034007800F01F012A
:101A70008A404009800000F1E020C0F8002170BDDC
:101A800001F01F0082404809800000F1E020C0F80A
:101A9000802170BD104A114001430E48001F0160B3
:101AA00070470C4A121D0029116801D0014300E063
:101AB0008143116070474FF0E0210428086903D08A
:101AC00020F004000861704740F00400FAE70000CD
:101AD0000000FA050CED00E080FFFF1FC54910B5BE
:101AE000884202D1012144150AE0C349884202D14B
:101AF0000121041504E0C14988420AD10121CC0327
:101B0000204600F08AFF2046BDE81040002100F08A
:101B100084BF10BD10B54268B94B0C791A400B68F0
:101B200042EA0422134343608368B64A1340D1E972
:101B3000024222434C7943EA44031A438260C26A58
:101B4000097C22F47002491EC9B242EA0151C16205
:101B500010BD00210160017141718160C1600121EE
:101B6000017470470029816802D041F0010101E051
:101B700021F00101816070470029816802D041F4A1
:101B8000807101E021F4807181607047002A426811
:101B9000C9B201D00A4300E08A43426070478168BD
:101BA00041F00801816070470146002089680907FB
:101BB00000D501207047816841F0040181607047C1
:101BC000014600208968490700D501207047002997
:101BD000816802D041F4A00101E021F4A0018160FC
:101BE0007047014600208968490200D501207047EE
:101BF0004268491E22F4604242EA41314160704726
:101C00000029416802D041F4006101E021F4006143
:101C10004160704770B5072409290AD9C568A1F148
:101C20000A0606EB4606B440A543B3401D43C56013
:101C300007E0056901EB4106B440A543B3401D43ED
:101C400005611F23072A09D2446B521E02EB820250
:101C500093409C4391400C43446370BD0D2A09D2CC
:101C6000046BD21F02EB820293409C4391400C43D1
:101C7000046370BDC46A0D3A02EB820293409C4338
:101C800091400C43C46270BD0029816802D041F4C8
:101C9000801101E021F4801181607047C06C80B236
:101CA000704754484C30006870470029416802D0A2
:101CB00041F4806101E021F48061416070470029B6
:101CC000416802D041F4805101E021F4805141602B
:101CD0007047826822F4E0420A438260704700291C
:101CE000816802D041F4004101E021F400418160AB
:101CF00070470029816802D041F4021101E021F40B
:101D0000021181607047014600208968890200D570
:101D10000120704770B5072409290AD9C568A1F1C7
:101D20000A0606EB4606B440A543B3401D43C56012
:101D300007E0056901EB4106B440A543B3401D43EC
:101D40000561836BC3F30154121B921C02EB8204E6
:101D50001F22A2409343A1400B43836370BD826B5B
:101D6000491E22F4401242EA01518163704708B5CE
:101D700008440090026008BD08B50844283000906F
:101D8000006880B208BD42681F4B1A400A43426097
:101D90007047416282627047426822F01F020A4324
:101DA00042607047134908310028086802D040F4A7
:101DB000000001E020F400000860704702460020A7
:101DC00012680A4200D001207047C9430160704781
:101DD00010B50246002054680B0AC9B20C401168C5
:101DE000194202D0002C00D0012010BD6FEA112151
:101DF000016070470024014000280140003C014080
:101E0000FFFEF0FFFDF7F1FFFFFD3FFF01684FF61A
:101E1000FE72114001600021016041608160C1607B
:101E20006A496A4A0839904203D1486840F00F0075
:101E300006E0664A1432904204D1486840F0F0004F
:101E400048607047614A2832904203D1486840F4A4
:101E50007060F5E75D4A3C32904203D1486840F437
:101E60007040EDE7594A5032904203D1486840F43F
:101E70007020E5E7554A6432904203D1486840F447
:101E80007000DDE7514A7832904203D1486840F053
:101E90007060D5E74E4A111F904203D1086840F0A8
:101EA0000F0006E04A4A1432904204D1086840F01C
:101EB000F00008607047464A2832904203D1086813
:101EC00040F47060F5E7424A3C32904203D1086822
:101ED00040F47040EDE73E4A50329042EAD1086843
:101EE00040F47020E5E730B5036847F6F07293439D
:101EF0000C6A8A682243D1E904452C4322438C6949
:101F00002243CC6922434C6A22438C6A22431A43FF
:101F10000260CA6842600A6882604968C16030BD78
:101F20000021016041608160C160016141618161A6
:101F3000C16101624162816270470029016802D07B
:101F400041F0010102E04FF6FE721140016070475E
:101F5000002A026801D00A4300E08A430260704709
:101F600041607047406880B2704701460020CA0057
:101F700002D5174A083A01E0144A083A12680A42A0
:101F800000D001207047C10003D51149091F086026
:101F900070470E4908394860704701460020CA0062
:101FA00002D50B4A083A01E0084A083A12680A4288
:101FB00000D001207047C10003D50549091F086002
:101FC0007047024908394860704700000800024025
:101FD00008040240374900200860091D0860091DF7
:101FE0000860091D086033493348143108607047A0
:101FF00030B530498379026853B30B6893430B6063
:102000000A1D13680468A343136002790A44136825
:10201000046823431360274A083213680468A34303
:102020001360131D1C680568AC431C604479102CB8
:1020300005D021440A68006802430A6030BD116877
:10204000046821431160196800680143196030BDBC
:102050000079084401689143016030BD00210160AE
:1020600001710C22427181717047124910310A6866
:1020700002430A60704701460E4A0020143212687B
:102080000A4200D0012070470A49143108607047A5
:10209000084A014600201268064B0A4014331B68A8
:1020A0000B4202D0002A00D00120704701491431B0
:1020B0000860704700040140FFFF0F00FC4A1168F0
:1020C00001F03801014311607047F9490A6822F0B4
:1020D00008020A600A6802430A607047F4490A6805
:1020E00022F010020A600A6802430A607047F04852
:1020F000F0494160F04941607047ED48ED49416069
:10210000ED4941607047EA48016941F08001016191
:102110007047E748016941F0800101617047E44977
:102120000420CA68D20701D001207047CA6852074C
:1021300001D502207047C968C906FBD50320704746
:1021400000B50346FFF7EBFF03E000BFFFF7E7FF33
:102150005B1E012803D0002B00D1052000BD002B01
:10216000F4D1FAE770B505464FF430263046FFF754
:10217000E7FF042811D1CE4C206940F00200206115
:102180006561206940F0400020613046FFF7D8FFCC
:10219000216941F6FD721140216170BD30B54FF4E7
:1021A00030252846FFF7CCFF042810D1C04C206909
:1021B00040F004002061206940F040002061284682
:1021C000FFF7BEFF216941F6FB721140216130BD6E
:1021D00000B50346FFF7A3FF03E000BFFFF79FFF33
:1021E0005B1E012803D0002B00D1052000BD002B71
:1021F000F4D1FAE730B54FF430252846FFF7E8FF71
:10220000042810D1AA4C206940F004002061206904
:1022100040F0400020612846FFF7DAFF216941F6CF
:10222000FB721140216130BDA1490020C9698907B5
:1022300000D50120704770B5A525FFF7F5FF00B167
:1022400000254FF430263046FFF77AFF042827D1C7
:10225000974C9848A0609848A060206940F0200002
:102260002061206940F0400020613046FFF768FFA0
:1022700041F6EF7604280ED1206941F6DF7108405F
:102280002061206940F0100020618C4805804FF4E7
:102290000050FFF755FF052802D021693140216128
:1022A00070BDF8B5064600204FF4005C00900D4666
:1022B0006046FFF745FF042816D17D4C206940F0A9
:1022C0000100206135806046FFF73AFF41F6FE7756
:1022D000042806D1B61C280C009630806046FFF713
:1022E0002FFF216939402161F8BDF0B506464FF452
:1022F00000570D463846FFF723FF04280CD16C4CDD
:10230000206940F00100206135803846FFF718FF52
:102310002169BA1E11402161F0BDF0B506464FF4A7
:1023200000570D463846FFF70BFF042813D1604CC9
:102330006048A0606048A060206940F01000206103
:1023400035803846FFF7FCFE052804D0216941F6A8
:10235000EF7211402161F0BD2DE9F041C04300F062
:10236000FF0CC0F30727C0F30746050E4FF40058D3
:102370004046FFF7E5FE042837D14D4C4D49A1609A
:102380004D49A160216941F010012161BCF1FF0FAD
:1023900008D04A480830A0F800C04046FFF7D0FEF9
:1023A00004281BD1FF2F07D044480A30078040463D
:1023B000FFF7C6FE042811D1FF2E07D03F480C308E
:1023C00006804046FFF7BCFE042807D1FF2D07D04A
:1023D0003A480E3005804046FFF7B2FE052804D08B
:1023E000216941F6EF7211402161BDE8F08170B5BD
:1023F00005464FF430263046FFF7A2FE042818D1D8
:102400002B4C2C48A0602C48A060206940F0200094
:102410002061206940F0400020613046FFF790FEC7
:1024200041F6DF71042805D0052802D022690A4050
:10243000226170BD206908402061206940F01000D1
:1024400020611E480DB1002100E0A5210180304629
:10245000FFF776FE0528ECD0216941F6EF721140B6
:10246000216170BDF0B5124C0746124816460D4664
:10247000A0601148A0604FF4005C6046FFF760FE6A
:10248000042814D1206940F01000206135430B4925
:102490003D43891C45F0F80008806046FFF750FE78
:1024A000052804D0216941F6EF7211402161F0BD89
:1024B0000020024023016745AB89EFCD00F8FF1FE4
:1024C0001C48C069800870471A48006A704719495B
:1024D00000200968890600D501207047154A0029A7
:1024E000116901D0014300E0814311617047014649
:1024F0000020104A012903D0D2680A4203D1704754
:10250000D169C907FBD0012070470A49C8607047EC
:1025100008490420CA68D20701D001207047CA6860
:10252000520701D502207047C968C906FBD50320B0
:102530007047000000200240914910B5884206D142
:102540000121042000F069FA002104203BE08D49BC
:10255000884206D10121082000F05FFA00210820FE
:1025600031E08949884206D10121102000F055FA56
:102570000021102027E08549884206D10121202032
:1025800000F04BFA002120201DE08149884206D14D
:102590000121402000F041FA0021402013E07D4954
:1025A000884206D10121802000F037FA00218020E6
:1025B00009E0794988420AD184150121204600F0BA
:1025C0002CFA00212046BDE8104000F026BA10BDCC
:1025D00010B50121084600F020FA0021BDE81040A6
:1025E000012000F01ABAF0B5CA78002502F00F03F6
:1025F000D20601D58A7813430A784FF00F0E12F0F5
:10260000FF0F4FF001021DD0D0F800400F8802FAF2
:1026100005F63740B74211D14FEA850C0EFA0CF798
:1026200024EA070703FA0CF43C43CF78282F02D0A2
:10263000482F02D002E0466100E006616D1C082DC3
:10264000E4D304600C88FF2C1ED944685FF00006B8
:1026500006F1080702FA07F50F882F40AF420FD1A5
:102660004FEA860C0EFA0CF7BC4303FA0CF73C4316
:10267000CF78282F00D14561CF78482F00D1056150
:10268000761C082EE4D34460F0BD4FF6FF71018044
:10269000022181700421C1707047024600209268B7
:1026A0000A4200D001207047806880B2704702461D
:1026B0000020D2680A4200D001207047C06880B272
:1026C000704701617047416170470AB1016170470D
:1026D00041617047C160704741F48032826181611D
:1026E00082618169806970472C4B10B51A684FF67A
:1026F0008074224042EA00100843186010BD284947
:10270000C8617047F0B5254C002801DAE36900E0A4
:102710006368420D120185B2C0F301579540C0F3C2
:102720000346032F05D0C2020AD50322B2409343C9
:1027300007E023F07062636823F07063636002E077
:10274000AB4343F0706201B12A43002801DAE26131
:10275000F0BD6260F0BD10B58A0721F003040F4997
:10276000130F21440F228C689A4094438C608A682E
:10277000984002438A6010BD0949C1F8DC007047E7
:1027800000080140000C014000100140001401400D
:1027900000180140001C01400020014000000140E1
:1027A000000020420D49086070470C49486070479E
:1027B0000A498860704709494AF6AA2008607047AC
:1027C00006494CF6CC4008607047044A0146002098
:1027D000D2680A4200D0012070470000003000405B
:1027E000A448016841F0010101604168A24A11401A
:1027F00041600168A14A11400160016821F4802113
:102800000160416821F4FE0141604FF41F018160C5
:10281000704798490A6822F480320A600A6822F4F4
:1028200080220A60B0F5803F07D0B0F5802F03D139
:10283000086840F4A02008607047086840F48030C1
:10284000F9E70246002053098A49012B0AD0022BDE
:102850000AD0496A02F01F02012393400B4200D0C4
:10286000012070470968F5E7096AF3E718B5002009
:102870004FF4A06400903120FFF7E3FF0099491C5A
:102880000091A14201D00028F5D03120FFF7D9FFF7
:10289000002800D0012018BD76490A6822F0F8020D
:1028A00042EAC00008607047754908607047714A85
:1028B0005368084323F47C131843506070477049F1
:1028C000086670476B4A516821F00301014351606B
:1028D00070476848406800F00C007047654A5168CE
:1028E00021F0F001014351607047624A516821F4C0
:1028F000E0610143516070475E494A6822F46052CA
:1029000042EAC000486070475A4A0029517A01D013
:10291000014300E08143517270475949C1F8D80022
:102920007047544A516821F4404101435160704757
:102930005049002281F8202081F82020012802D06F
:10294000042802D1052081F8200070474D49086015
:10295000704748490A6A02430A6270474949443944
:102960000860704730B543494A6812F00C03464A84
:1029700003D0042B01D0082B21D002604A680F231A
:10298000424C03EA1212A35C0268DA4042604B68D0
:10299000072505EA1323E35C22FA03F383604B68FF
:1029A00005EAD323E35CDA40C2604968032303EA03
:1029B0009131231F595CB2FBF1F1016130BD4A68CE
:1029C0004B6802F470124FF0020413F4803F04EBE2
:1029D000924202D04B689B0301D52D4B00E02A4B5D
:1029E0005A43CAE7234A0029516901D0014300E054
:1029F0008143516170471F4A0029916901D0014309
:102A000000E08143916170471A4A0029D16901D0E1
:102A1000014300E08143D1617047164A0029D16823
:102A200001D0014300E08143D1607047114A002981
:102A3000116901D0014300E08143116170471149E0
:102A40004039086070470E49C86470470949C87129
:102A500070470848416A41F0807141627047054AF9
:102A60000146002092680A4200D0012070470149C7
:102A700088727047001002400000FFF8FFFFF6FE6A
:102A8000000042428004424200127A006C10002092
:102A900000093D00F94910B5884202D10121C41452
:102AA00086E0B0F1804F09D0F54988420DD101216F
:102AB0000220FFF7BBFF0021022064E0012108464D
:102AC000FFF7B4FF002101205DE0EE49884206D106
:102AD00001210420FFF7AAFF0021042053E0EA4966
:102AE000884206D101210820FFF7A0FF002108201D
:102AF00049E0E649884206D101211020FFF796FF00
:102B0000002110203FE0E249884206D10121202027
:102B1000FFF78CFF0021202035E0DE49884202D1FA
:102B20000121441444E0DC49884202D10121CC0453
:102B30003EE0DA49884202D101210C0538E0D8494B
:102B4000884202D101214C0532E0D649884206D1A3
:102B500001214020FFF76AFF0021402013E0D24905
:102B6000884206D101218020FFF760FF00218020EC
:102B700009E0CE4988420AD1841501212046FFF799
:102B800055FF00212046BDE81040FFF74FBFC84960
:102B9000884202D101210C040AE0C649884202D1D0
:102BA00001214C0404E0C44988420AD101218C046B
:102BB0002046FFF732FF2046BDE810400021FFF716
:102BC0002CBF10BD30B50288AC4BB24C98420DD032
:102BD000A0420BD0B0F1804F08D0A94DA84205D03B
:102BE000A84DA84202D0A84DA84203D122F07005FA
:102BF0004A882A43A54DA84206D0A54DA84203D035
:102C000022F44075CA882A4302808A8882850A880D
:102C1000028598420AD0A04208D0A54A904205D029
:102C2000A44A904202D0A44A904201D1097A018676
:102C30000121818230BD30B5028C22F00102028474
:102C4000028C8388048B22F0020224F073050C8826
:102C50002C430D8915434A882A43884DA8420BD03E
:102C60008C4DA84208D0924DA84205D0914DA84263
:102C700002D0914DA8420DD122F008054A8923F4D3
:102C800040732A4322F004058A882A438D891D4314
:102C9000CB892B4383800483C9888186028430BD1D
:102CA00070B5028C22F010020284028C8488038B9F
:102CB0000D8823F4E6464FF6FF7303EA05253543F6
:102CC0000E8922F0200203EA061616434A8803EA18
:102CD00002123243694EB04202D06E4EB04215D15C
:102CE00022F080064A8924F4406403EA0212324347
:102CF00022F040068A8803EA021232438E8903EAF0
:102D000086062643CC8903EA840434438480058301
:102D1000C9880187028470BD70B5028C22F480726C
:102D20000284028C8488838B0D8823F073031D43F7
:102D300022F400730E894FF6FF7202EA06261E4344
:102D40004B8802EA032333434C4EB04202D0514E2B
:102D5000B04215D123F400664B8924F4405402EAB2
:102D60000323334323F480668B8802EA032333432F
:102D70008E8902EA06162643CC8902EA04143443FB
:102D800084808583C9888187038470BD70B5028C77
:102D900022F480520284048C8288838B0D8823F471
:102DA000E6464FF6FF7303EA0525354324F4005643
:102DB0000C8903EA043434434E8803EA063626437A
:102DC0002E4CA04202D0334CA04205D122F48044C4
:102DD0008A8903EA8212224382808583C988A0F807
:102DE0004010068470BD828B22F440628283828B05
:102DF0004FF6FF7303EA01210A4382837047828BF7
:102E000022F00C028283828B0A4382837047028BFA
:102E100022F440620283028B4FF6FF7303EA012122
:102E20000A4302837047F0B5048C24F01004048434
:102E3000078B048C4FF6FF7527F4734705EA0333BD
:102E40003B4305EA02221A430C4B05EA011698425D
:102E50000ED0104B98420BD0B0F1804F08D0084BE9
:102E6000984205D0074B984202D0074B984225D193
:102E700024F02001314341F0100124E0002C0140F6
:102E80000004004000080040000C0040001000401A
:102E90000014004000340140004C0140005001404B
:102EA0000054014000180040001C00400020004079
:102EB00000400140004401400048014024F0A003CC
:102EC0000B4343F0100102830184F0BD028B22F01A
:102ED0000C020283028B0A430283704770B5048C94
:102EE00024F001040484058B048C4FF6FF7606EA77
:102EF0000313134325F0F305F94A2B4390420ED0F8
:102F0000F84A90420BD0B0F1804F08D0F64A904278
:102F100005D0F64A904202D0F54A904202D124F000
:102F2000020201E024F00A020A4342F00101038395
:102F3000018470BD2DE9F05F0D4604460888E84F16
:102F4000DFF8A0C3DFF8A0834988AA882B894FF057
:102F5000804960B3042832D04FF6FF7E082836D06F
:102F6000208C9B4620F480502084A38B268C7046B6
:102F700000EA022223F473431A4300EA0B301043A1
:102F80000EEA013EBC420BD0644509D04C4507D047
:102F9000444505D0D54A944202D0D54B9C4245D1F8
:102FA00026F4005141EA0E0141F4805143E02046ED
:102FB000FFF794FFE9882046BDE8F05F86E72046EA
:102FC000FFF731FFE9882046BDE8F05F1FE7208C5E
:102FD00020F480702084B4F81CA0208C0EEA031327
:102FE00013432AF0F30A0EEA012B43EA0A03BC4218
:102FF0000BD0644509D04C4507D0444505D0BB4AA9
:10300000944202D0BA4A944204D120F4007040EABB
:103010000B0002E020F42060084340F48070A3839A
:103020002084E9882046BDE8F05FE8E626F4024205
:103030000A4342F48051A08320462184E988BDE8F8
:10304000F05FD0E62DE9F0410C460026498807469E
:10305000012501B90226A288012A00D10225208873
:1030600023890028384610D0FFF7DDFEE188384676
:10307000FFF7CDFE23892A4631463846FFF72EFF5B
:10308000E1883846BDE8F04120E7FFF727FFE188F7
:103090003846FFF71BFF23892A4631463846FFF79B
:1030A000C2FEE1883846BDE8F041B0E610B50A88B6
:1030B0004B88CC881A438B8823431A430B891A43C5
:1030C0004B8989891A430A43A0F8442010BD4FF662
:1030D000FF71818000210180C180418001727047B1
:1030E0000021018041808180C180018141818181F5
:1030F000C181704700210180418001228280C1800E
:10310000018170470021018041808180C18001815F
:103110004181818170470029018802D041F001017D
:1031200001E021F0010101807047002930F8441FBF
:1031300002D041F4004101E0C1F30E01018070476B
:10314000002A828901D00A4300E08A4382817047C5
:10315000818270471143A0F848107047002A828985
:1031600001D00A4300E08A4382817047018921F03F
:10317000070101817047028922F070020A4302812F
:10318000704700B50346FFF7F6FF188940F00700C7
:10319000188100BD70B516460D46602904464FF0F3
:1031A000010231460AD0FFF799FE29462046FFF773
:1031B000E2FF208940F00700208170BDFFF733FE59
:1031C000F3E730B504894FF6FF7505EA032313438F
:1031D000E4B20B432343038130BD10B50446FFF72F
:1031E000F0FF208940F07700208110BD10B5044623
:1031F000FFF7E7FF208940F48040208110BD018562
:1032000082827047028822F070020A43028070476F
:1032100070B50589048B068C25F007050D434FF624
:10322000FC410C4040F201110C434FF6FF7101EAE2
:10323000031126F0220611433143058104830184E2
:1032400070BD028B22F070020A4302837047028B2A
:103250004FF6FF7322F4E04203EA01211143018398
:103260007047828B22F070020A4382837047828B00
:103270004FF6FF7322F4E04203EA012111438183F8
:1032800070470029018802D041F0800101E021F05F
:103290008001018070470029818802D041F004013B
:1032A00001E021F00401818070470029818802D06B
:1032B00041F0080101E021F00801818070470029F8
:1032C000818802D041F0010101E021F001018180FB
:1032D0007047028B22F008020A4302837047000005
:1032E000002C014000340140000400400008004070
:1032F000000C0040028B4FF6FF7322F4006203EAD9
:10330000012111430183E9E7828B22F008020A437D
:103310008283E3E7828B4FF6FF7322F4006203EAB5
:10332000012111438183D9E7028B22F004020A4371
:103330000283D3E7028B4FF6FF7322F4806203EA25
:10334000012111430183C9E7828B22F004020A4361
:103350008283C3E7828B4FF6FF7322F4806203EA15
:10336000012111438183B9E7028B22F080020A43D5
:103370000283B3E7028B4FF6FF73C2F30E0203EA38
:10338000012111430183A9E7828B22F080020A43C5
:103390008283A3E7828B4FF6FF73C2F30E0203EA28
:1033A00001211143818399E7028C22F002020A4332
:1033B000028493E7028C22F008020A4302848DE71C
:1033C000028C4FF6FF7322F0200203EA0111114331
:1033D000018483E7028C4FF6FF7322F0800203EA38
:1033E00001111143018479E7028C4FF6FF7322F437
:1033F000007203EA0121114301846FE7028C4FF64A
:10340000FF7322F4006203EA01211143018465E79E
:10341000028C4FF6FF7322F4005203EA013111438C
:1034200001845BE710B50123048C8B409C4304842A
:10343000038C8A401343038410BD10B50423048C0D
:103440008B409C430484038C8A401343038410BD47
:1034500030B50124058C00F118038C40A543058488
:1034600089B108290FD0091FC1F34E001844016823
:1034700021F4E041016001684FF6FF7303EA022284
:103480001143016030BD03EB5100016821F0700170
:1034900001600168F4E70029018802D041F00201CF
:1034A00001E021F00201018018E70029018802D023
:1034B00041F0040101E021F0040101800EE7002940
:1034C000818802D041F0800101E021F080018180FB
:1034D00004E7028822F00802028002880A43028080
:1034E000FCE6828822F07002828082880A43828011
:1034F000F4E6028922F00702028102890A4302816E
:10350000ECE6028922F08002028102890A430281EC
:10351000E4E68184E2E68185E0E68186DEE60187F5
:10352000DCE68187DAE6A0F84010D7E6028822F4CC
:103530004072028002880A430280CFE6808ECDE688
:10354000008FCBE6808FC9E6B0F84000C6E6808CDD
:10355000C4E6008DC2E602460020128A0A4200D06C
:103560000120BBE6C9430182B8E602460020138A67
:1035700092890B4202EA010202D0002A00D0012007
:10358000ACE6C9430182A9E6C44910B588420AD114
:1035900001218C032046FFF740FA2046BDE8104089
:1035A0000021FFF73ABABE49884202D101214C04FA
:1035B00010E0BC49884202D101218C040AE0BA49DA
:1035C000884202D10121CC0404E0B84988420AD1E2
:1035D00001210C052046FFF729FA2046BDE81040DE
:1035E0000021FFF723BA10BD30B50446008A85B02C
:1035F0000D464CF6FF710840E98801432182A189FC
:103600004EF6F3100140A8882A8910436A890A43BC
:103610001043A081A08A4FF6FF410840A9890143C9
:10362000A1826846FFF79EF99C48844201D1039825
:1036300000E00298A189090400EBC00101EB001031
:10364000296801D5490000E08900B0FBF1F064224F
:10365000B0FBF2F109010B096FF018056B4300EBA9
:103660008300A3891D044FF0320306D503EBC0008D
:10367000B0FBF2F000F0070005E003EB0010B0FB38
:10368000F2F000F00F000843208105B030BD4FF488
:103690001651016000218180C18001810C2242818C
:1036A0008181704710B5038A4FF2FF0213400A88E8
:1036B0004C8822438C88C9880C4322431A430282D7
:1036C00010BD0021018041808180C18070470029A8
:1036D000818902D041F4005101E021F4005181813F
:1036E000704710B5C1F3421301F01F040121A1403E
:1036F000012B07D0022B07D01430002A026805D016
:103700000A4304E00C30F8E71030F6E78A43026021
:1037100010BD002A828A01D00A4300E08A438282D7
:103720007047028A22F00F020282028A0A43028252
:103730007047828922F40062828182890A438281F1
:1037400070470029818902D041F0020101E021F097
:10375000020181817047028A22F020020282028ADD
:103760000A43028270470029018A02D041F4804155
:1037700001E021F4804101827047C1F3080181809A
:1037800070478088C0F308007047818941F00101CB
:1037900081817047028BD2B20283028B42EA0121FF
:1037A00001837047028B02F47F420283028B0A433B
:1037B000028370470029818A02D041F0200101E094
:1037C00021F02001818270470029818A02D041F0D6
:1037D000100101E021F01001818270470029818AE7
:1037E00002D041F0080101E021F008018182704718
:1037F0000029818902D041F4004101E0C1F30E01AA
:10380000818170470029818A02D041F4006101E082
:1038100021F4006181827047828A22F00402828250
:10382000828A0A43828270470029818A02D041F04D
:10383000020101E021F0020181827047024600206E
:1038400012880A4200D001207047C94301807047A6
:1038500030B501F01F0201240025C1F3421304FA20
:1038600002F2012B0FD0022B0FD0838A4FEA1121D5
:103870000088134204FA01F400EA040001D000B108
:103880000125284630BD8389F0E7038AEEE70A0A5E
:1038900001219140C9430180704700000038014078
:1038A0000044004000480040004C004000500040F0
:1038B0000648804706480047FEE7FEE7FEE7FEE7CA
:1038C000FEE7FEE7FEE7FEE7FEE7FEE775390008E4
:1038D000ED0000080CB500214B48019100910268F1
:1038E00042F4803202604FF4A063026802F40032B6
:1038F0000092019A521C0192009A12B9019A9A42BE
:10390000F3D10268920333D5012100913F490A683F
:1039100042F010020A600A6822F007020A600A6890
:1039200042F002020A6041684160416841604168BA
:1039300041F480614160416821F47C11416041683B
:1039400041F4E8114160016841F080710160016853
:103950008901FCD5416821F003014160416841F0D3
:10396000020141604168C1F381010229FAD10CBD15
:1039700000910CBD244810B5016841F001010160BF
:103980004168234A114041600168224A11400160A8
:10399000016821F480210160416821F4FE01416049
:1039A0004FF41F018160FFF795FF1B494FF0006046
:1039B000086010BD144910B54868184A10F00C038F
:1039C000174803D0042B01D0082B0AD002604968A5
:1039D000134AC1F30311121D515C0268CA40026010
:1039E00010BD4A684B6802F470124FF0020413F4E1
:1039F000803F04EB924202D04B689B0301D5094BF8
:103A000000E0064B5A43E1E700100240002002406C
:103A10000000FFF8FFFFF6FE08ED00E000127A005C
:103A20007C10002000093D00A0F16101192900D897
:103A30002038704740EA01039B0703D009E008C91A
:103A4000121F08C0042AFAD203E011F8013B00F863
:103A5000013B521EF9D27047D2B201E000F8012BAF
:103A6000491EFBD270470022F6E710B513460A46FE
:103A700004461946FFF7F0FF204610BD421C10F81F
:103A8000011B0029FBD1801A704730B50446002085
:103A9000034600E05B1C934203D2E05CCD5C401B1C
:103AA000F8D030BD420005D0C0F3C7525242914217
:103AB00001DC0020704700EBC15070472DE9FE4F3C
:103AC00081EA030404F0004421F0004100944FF027
:103AD000000B23F0004350EA01045ED052EA0304D5
:103AE0005BD0C3F30A54C1F30A552C44A4F2F33457
:103AF0000194A0FB0254C1F3130141F48011C3F3FC
:103B0000130343F4801301FB024400FB034E840AB9
:103B1000970A44EA815447EA8357A4FB0768029551
:103B20008D0A05FB07854FEA932C04FB0C542705EF
:103B3000029D4FEA065847EA1637B5EB08056EEBCB
:103B4000070C870E920E47EA811742EA8312A7FB01
:103B50000201B6EB0B0164EB00042B0D43EA0C33BE
:103B60005E1844EB1C50DA465146E7FB0201C5F3F0
:103B700013044FEA0B3343EA14534FEA0432019C17
:103B800043EA0603A4F10C040294009CCDE900B4BE
:103B900000F007F903B0BDE8F08F00200146F9E717
:103BA00070B521F0004303430CD0C1F30A55002443
:103BB000D5EB040564EB0403D617AD1AB34102DB61
:103BC0000020014670BD201841EB025170BD9623C4
:103BD0000022114600F0A8B8C1F30A5210B5C1F393
:103BE000130140F2FF3341F480119A4201DA0020C0
:103BF00010BD40F233439A42A2F2334203DC5242F8
:103C000000F079F810BD904010BD00F0004230F097
:103C100000400AD0C10D01F56071C0F3160042EA00
:103C20000151C20840071143704700200146704708
:103C300001F0004330B421F0004150EA010206D007
:103C40000A0DA2F56072C1F31301002A02DC30BC38
:103C500000207047440F44EAC104C100E01830BCA2
:103C600000EBC25000F057B830B50B4601460020BB
:103C70002022012409E021FA02F59D4205D303FA2E
:103C800002F5491B04FA02F52844151EA2F10102AF
:103C9000F1DC30BD2DE9F05F0546002092469B46E1
:103CA00088460646814640241BE028464146474652
:103CB000224600F020F853465A46C01A914110D3CC
:103CC00011461846224600F013FA2D1A67EB010838
:103CD0004F4622460120002100F00AFA17EB0009A6
:103CE0004E41201EA4F10104DFDC484631462A463D
:103CF0004346BDE8F09F202A04DB203A21FA02F077
:103D00000021704721FA02F3D040C2F12002914015
:103D10000843194670470029A8BF7047401C490056
:103D200008BF20F00100704710B4B0FA80FC00FA20
:103D30000CF050EA010404BF10BC704749B1CCF14B
:103D4000200421FA04F411FA0CF118BF01212143D7
:103D50000843A3EB0C01CB1D4FEA00614FEA102092
:103D600042BF002010BC704700EBC3501044002934
:103D7000A4BF10BC7047401C490008BF20F00100E0
:103D800010BC704710B5141E73F1000408DA401C13
:103D900041F1000192185B411A4301D120F001006A
:103DA00010BD2DE9F04D92469B4611B1B1FA81F25A
:103DB00002E0B0FA80F22032904600F099F9044611
:103DC0000F4640EA0A0041EA0B0153465A460843AF
:103DD00013D0114653EA010019D0C8F140025046F1
:103DE000FFF789FF05460E4650465946424600F009
:103DF0007FF9084305D0012004E020463946BDE89C
:103E0000F08D0020054346EAE0762C4337430A98BC
:103E10006305E40AA0EB08000022FD0A44EA4754C7
:103E20000A3002D500200146E9E701051019694171
:103E3000DDE9084500196941BDE8F04DA2E72DE92B
:103E4000FE4F804681EA0300C00F0C46009021F02F
:103E5000004123F00045B8EB0200A94105D24046DD
:103E6000214690461C460B46024623F00040104374
:103E700047D0270DC7F30A00C3F30A510290401A36
:103E8000019040286BDAC3F3130040F4801B0098C4
:103E9000924620B10023D2EB030A63EB0B0B01988F
:103EA0005946C0F14002504600F022F906460D4640
:103EB00050465946019A00F02AF910EB080061417A
:103EC000002487EA115284EAE7731A4340D0009A2B
:103ED00062B3019A012A4FEA075215DC001B61EB1D
:103EE00002014FF0004202EA0752CDE90042001CF5
:103EF00041F5801132462B46FFF753FF03B0BDE872
:103F0000F08F40462146F9E7001B61EB0201001CDF
:103F100041F5801300185B412018A2F5001747EB0C
:103F2000030140EAD570B6196D4111E06D084FEA02
:103F3000360645EAC0754FEA0752001B61EB0201E5
:103F4000001C41F5801149084FEA30000019514129
:103F500032462B4603B0BDE8F04FFFF713BF009881
:103F6000012240000023D0EB020263EBE0730098D3
:103F700021464FEAE074B8EB000061EB0401E9E789
:103F800083F000435BE781F0004158E72DE9F04DF5
:103F900081EA030404F0004B21F0004514464FF081
:103FA000000A23F0004150EA050220D054EA010241
:103FB0001DD0C5F30A570246C5F31303C1F313001E
:103FC000C1F30A5640F4801543F48013A7EB0608AA
:103FD000101BD64608F2FD3873EB050002D308F13A
:103FE000010801E092185B41B8F1000F03DA0020EC
:103FF0000146BDE8F08D00204FF48011064684464E
:104000000EE0171B73EB050705D3121B63EB0503CB
:1040100006434CEA010C49084FEA300092185B4114
:1040200050EA0107EDD152EA030012D082EA0400FF
:1040300083EA0501084305D0101BAB4106D20122DB
:10404000002306E000224FF0004302E06FF001027F
:1040500053101AEB06004CEB085110EB0A0041EB31
:104060000B01BDE8F04DFFF78DBEC1F30A52C1F35D
:10407000130140F2FF3341F480119A4202DA00202A
:104080000146704740F233439A42A2F2334202DCC7
:104090005242FFF730BE00F02BB8000030B5041ECE
:1040A00071F1000404DB4FF00044404264EB010175
:1040B000141E73F1000405DB1C464FF0004352420E
:1040C00063EB0403994208BF904230BD064C074D94
:1040D00006E0E06840F0010394E8070098471034D8
:1040E000AC42F6D3FCF706F8B04A0008D04A000804
:1040F000202A04DB203A00FA02F1002070479140A8
:10410000C2F1200320FA03F3194390407047202A9C
:1041100006DBCB17203A41FA02F043EAE07306E0EF
:1041200041FA02F3D040C2F12002914008431946FF
:10413000704770B58C1810F8015B15F0070301D1BA
:1041400010F8013B2A1106D110F8012B03E010F8FA
:10415000016B01F8016B5B1EF9D12B0705D400231D
:10416000521E0DD401F8013BFAE710F8013BCB1ABF
:10417000921C03E013F8015B01F8015B521EF9D5B4
:10418000A142D8D3002070BD0FB4084B10B504A9CC
:1041900002AA039800F0F8F8044602A9002000F0F3
:1041A00081FC204610BC5DF814FB0000A54A000805
:1041B0007CB50C001D461646014601D0601E00E08D
:1041C0000020CDE90010064B6A462946304600F033
:1041D000DBF8002C02D0009A002111707CBD000099
:1041E0008F4A000802E008C8121F08C1002AFAD14D
:1041F00070477047002001E001C1121F002AFBD167
:10420000704700002DE9FF5F82B00021DDE9043036
:10421000020DDDF840B0034318D044F61050A2F26E
:10422000FF3242431514119801281FD0A5EB0B0053
:10423000401C5FEA000A4FF000064E4FDFF838914D
:10424000B046504615D5CAF1000413E01198012478
:104250004AA3012801D16FEA0B010298119AC0E923
:104260000031C0E9024206B0BDE8F09FCBF100008A
:10427000DFE704460021404A491842EB0450CDE9EB
:10428000001012E0E00707D032463B464046494660
:10429000FFF714FC8046894632463B4610461946D5
:1042A000FFF70CFC06460F466410002CEAD1DDE94E
:1042B0000401DDE90023BAF1000F06DAFFF7FEFB87
:1042C00042464B46FFF7FAFB05E0FFF75FFE42462A
:1042D0004B46FFF75BFE04460E460022284BFFF7D5
:1042E000DDFE03D84FF0FF30014607E00022254BEA
:1042F00020463146FFF7A3FDFFF7B7FE102409E083
:10430000002C0ADB0A220023FFF7C4FC039B303297
:104310001A55641E50EA0102F2D1641C039AC4F1DA
:1043200011031444119A012A03D0012208430DD12C
:104330000AE0084304D000204FF0110B119072E7FF
:10434000A3EB0B056D1E0DE05B4504DD4FF0000295
:1043500005F1010504E003DA4FF00002A5F10105C3
:10436000002AECD002981199C0E90231C0E9004559
:1043700079E70000000014400000F03F300000002A
:104380000000F0430000E03F2DE9FF4F95B09A4652
:10439000884606460025EEE1252877D100242746E9
:1043A000F94A0121039400E0044316F8013F203B41
:1043B00001FA03F01042F7D130782A2811D06FF0BB
:1043C0002F033078A0F13002092A16D8039A44F05E
:1043D000020402EB820203EB42021044761C0390BB
:1043E000EFE758F8042B0392002A03DA504244F412
:1043F0000054039044F00204761C30782E2816D125
:1044000016F8010F44F004042A280DD06FF02F0293
:104410003078A0F13003092B09D807EB870302EBB2
:104420004303C718761CF3E758F8047B761C3078F2
:104430006C280FD006DC4C2817D068280DD06A28CD
:1044400014D104E0742810D07A280FD10DE044F480
:1044500000140AE044F4801401E044F4401472783B
:10446000824202D104F58014761C761C30786628CE
:104470000BD013DC582877D009DC002875D04528EC
:10448000F6D04628F4D047281AD193E118E06328E3
:1044900035D0642879D0652812D18BE1702873D08B
:1044A00008DC6728F1D069286FD06E280DD06F28FE
:1044B00006D1ACE073282CD0752874D0782853D05E
:1044C0005246179990476D1C54E1C4F302500228DC
:1044D00009D003280DD0D8F8001004280DD00D60A5
:1044E00008F1040846E1D8F80010EA17C1E90052C3
:1044F000F6E7D8F800100D80F2E70D70F0E718F835
:10450000041B8DF8001000208DF80100EB460120FF
:1045100003E058F804BB4FF0FF3061074FF0000193
:1045200002D40DE009F101018946B9420FDA814553
:10453000F8DB1BF809100029F4D108E009F10101AA
:1045400089468142FADB1BF809100029F6D103984D
:104550005346A0EB090721463846179A00F080FA27
:10456000284400EB090507E044E008E10DE01BF8F2
:10457000010B524617999047B9F10109F7D25346FA
:1045800021463846179AF2E039E00A21C4F3025274
:104590004FF0000B0091022A06D058F8040BC11707
:1045A000032A09D00AE023E008F1070020F00702FF
:1045B000F2E80201904605E000B2C117042A01D1D9
:1045C00040B2C117002906DA0A460021404261EBD9
:1045D00002012D2202E0220504D52B228DF80420B1
:1045E000012203E0E20701D02022F7E7914657E0DD
:1045F0000A2100E010214FF0000B00910BE0102188
:104600004FF0000B44F004040827009103E0082059
:104610004FF0000B0090C4F30252022A05D058F864
:10462000040B0021032A08D008E008F1070020F05D
:104630000702F2E80201904603E080B2042A00D1AA
:10464000C0B24FF0000922072AD53278702A07D06D
:10465000DDF800C08CF0100C5CEA0B0C05D00EE00D
:1046600040228DF80420012208E050EA010306D020
:1046700030238DF804308DF8052002229146009BEE
:1046800083F0080353EA0B030AD150EA010201D177
:10469000620705D530228DF804204FF001097F1EF6
:1046A0003278582A04D039A20C920CAA02920BE05C
:1046B0003BA2F9E75B46009AFFF7ECFA0C9B9B5C88
:1046C000029A521E0292137050EA0102F2D102982D
:1046D00004A9081A00F1200B600702D524F48034E5
:1046E00000E001275F4502DDA7EB0B0000E00020A2
:1046F00000EB0B01009003984944401A0390E0033B
:1047000006D453462146179A039800F0A9F90544A8
:10471000002706E001A85246C05D179990476D1C1E
:104720007F1C4F45F6DBE0030CD553462146179A14
:10473000039800F095F9054404E03020524617999B
:1047400090476D1C0099481E00900029F5DC08E098
:104750000298029952460078491C02911799904795
:104760006D1CBBF10001ABF1010BF1DC5BE100F072
:1047700065F90544761C307800287FF40DAE19B039
:104780002846BDE8F08F000009280100303132339F
:10479000343536373839616263646566000000007D
:1047A0003031323334353637383941424344454667
:1047B00000000000600700D4062708F1070020F081
:1047C0000700F0E80223804603F0004C5FEA0C008B
:1047D00001D097A009E0200501D596A005E0E007EB
:1047E00001D095A001E0AFF24C001390307823F097
:1047F000004365280CD006DC452809D046281DD08A
:1048000047287FD13BE0662818D067287AD136E068
:104810000021112F01DB112000E0781CCDE90001FF
:1048200004A90CA8FFF7EEFCDDE90D010C9A4FF08E
:10483000000B07F10109109200914EE04FF000408B
:104840000097CDE9011004A90CA8FFF7DBFCDDE916
:104850000D020C9B0F994FF0000B914610930092A4
:1048600011B9791C00EB0109B7EB090003D4C0F1C1
:10487000FF3B07F10109A9EB0700019042E0012F7E
:1048800000DA01270021112F01DD112000E0384658
:10489000CDE9000104A90CA8FFF7B4FCDDE90D0186
:1048A0000C9A00914FF0000BB946109221070FD4DB
:1048B000009A4A4503DA914601E0A9F10109B9F1EC
:1048C000010F05DD109AA9F10101515C3029F4D0E6
:1048D000B84202DA10F1040F03DA0121CDE9011028
:1048E00010E0002803DC8344A9EB000102E0411C36
:1048F000494500DD8946A0EB0B00401C01904FF0BC
:1049000000400290200705D40198484502DB4FF093
:10491000FF30019000208DF84B0002980DF14B07FD
:10492000B0F1004F25D002200C902B200D90029862
:1049300000280CDA404202902D200D9007E00A2159
:104940000298FFF791F93031029007F8011D0C9998
:10495000481E0C900029F2DC02980028EFD1791E45
:104960000D980870307800F0200040F0450007F8FE
:10497000020D11A8C01BC01D02901398007800B151
:10498000012000EB0901019801EBE071029801445C
:104990000398401A401E0390E00306D45346214674
:1049A000179A039800F05CF805441398007818B142
:1049B0005246179990476D1CE00323D55346214674
:1049C000179A039800F04CF805441BE0BBF1000F68
:1049D00007DB0098584504DD1098179910F80B0074
:1049E00001E0179930205246904701980BF1010BD6
:1049F000401E05F10105019004D12E205246179961
:104A000090476D1CB9F10001A9F10109DEDC05E058
:104A100017F8010B5246179990476D1C0299481ED2
:104A200002900029F4DC53462146179A03989EE62B
:104A30002D0000002B000000200000002DE9F041B7
:104A4000044600251E461746880404D405E039466E
:104A50002020B0476D1C641EF9D52846BDE8F081C2
:104A60002DE9F041044600251E469046C80301D5B5
:104A7000302700E02027880404D505E04146384669
:104A8000B0476D1C641EF9D52846BDE8F0814A6820
:104A9000002A06D00A68531C0B6010704868401E3C
:104AA000486070470A68531C0B6010707047000024
:104AB000D04A000800000020901000003241000899
:104AC000204B000890100020503A0000F4410008EC
:104AD000011022015A1008B904791E71B6B80B2CC6
:104AE000016402FF0201FF01FF01FF01FF01FF015D
:104AF000FF01FFF102FF0101FF01FF01FF01FF01C3
:104B0000FF01FF01FF0113B2013D02040608142C4E
:104B10000203040415060708097CA24A042C591450
:04000005080000ED02
:00000001FF
